S01D000044435F4D6F746F725F436F6E74726F6C5F52544F532E7372656329
S11300000C942A000C9447000C9447000C9447006D
S11300100C9447000C9447000C9447000C94470040
S11300200C9447000C9447000C9447000C94470030
S11300300C9447000C9447000C9447000C94470020
S11300400C9447000C9447000C9447000C94470010
S11300500C94470011241FBECFE5D8E0DEBFCDBF0E
S113006010E0A0E6B0E0ECE4F6E102C005900D92E9
S1130070A237B107D9F726E0A2E7B0E001C01D928C
S1130080A23EB207E1F70E94D00A0C94240B0C9410
S113009000000F931F93CF93DF9328C0F894E0914F
S11300A08000F0918100C681D781CE010C960E9418
S11300B0C10178948E010E5F1F4FC8010E94C101D7
S11300C08E8990917800981710F48093780090E0CE
S11300D09C01220F331F220F331F220F331F820F65
S11300E0931FB80188579F4F0E946F0180917B0036
S11300F08111D4CFDF91CF911F910F9108950F9368
S11301001F93CF93DF930E941708209174003091BE
S11301107500821B930B90937300809372005EC0F2
S113012020917600309177002F5F3F4F3093770016
S11301302093760001979093730080937200232B91
S113014009F045C080918600909187002091840039
S1130150309185003093870020938600909385002A
S11301608093840034C00580F681E02DC681D78158
S11301702A813B81809176009091770082179307C2
S113018068F1F8948E010E5F1F4FC8010E94C101EF
S11301908C899D89892B21F0CE010C960E94C10186
S11301A078948E8990917800981710F48093780051
S11301B090E09C01220F331F220F331F220F331FA5
S11301C0820F931FB80188579F4F0E946F01E091DF
S11301D08600F091870080818111C5CF80917200E3
S11301E090917300009709F09BCF809176009091D5
S11301F077009093750080937400DF91CF911F91E5
S11302000F9108950E9449000E947F0006C0882330
S113021009F44FC081508093780080917800282F92
S113022030E0F901EE0FFF1FEE0FFF1FEE0FFF1F6F
S1130230E20FF31FE857FF4F9081992341F3C9015F
S1130240880F991F880F991F880F991F820F931F7A
S1130250DF010180F281E02D0280F381E02D12960E
S1130260FC93EE93119785579F4FE817F90729F4EC
S113027082819381FD0192838183F901EE0FFF1F37
S1130280EE0FFF1FEE0FFF1F2E0F3F1FF901E85760
S1130290FF4F0180F281E02D8681978190937A004F
S11302A080937900DC01ED91FC91119757966C9144
S11302B0099508950E9402010895FC010396928312
S11302C081832FEF3FEF3483238396838583908745
S11302D0878310820895FC01118610860895CF93B8
S11302E0DF939C01FB01DC011196CD91DC91129707
S11302F0D383C2838C819D81958384838C819D81EA
S1130300DC0113967C936E9312977D836C83318703
S11303102087F90180818F5F8083DF91CF910895D9
S1130320CF93DF93EB01488159814F3F2FEF520761
S113033021F4FC01A781B0850DC0DC01139601C036
S1130340DF011296ED91FC911397208131814217C0
S11303505307B0F71296ED91FC911397FB83EA8350
S1130360D583C483BD83AC831396DC93CE93129759
S113037099878887FC0120812F5F2083DF91CF91AB
S11303800895CF93DF93FC01A085B185C281D38109
S1130390848195819D838C83C481D581828193815D
S11303A09B838A8311968D919C911297E817F90784
S11303B031F48481958112969C938E9311971186C2
S11303C010868C9181508C938C91DF91CF910895FC
S11303D01BBC8CE78ABD8BE08EBD89B7806189BF69
S11303E0089531E1FC013083319722E22083319773
S11303F0A3E3A08331976083319770833197108290
S1130400319760E8608331971082319762E06083AE
S1130410319763E06083319764E06083319765E0EE
S11304206083319766E06083319767E0608331973A
S113043068E06083319769E06083319760E16083AD
S113044031973083319732E13083319733E1308310
S1130450319734E13083319735E13083319736E198
S11304603083319737E13083319738E130833197E6
S113047039E13083319730E23083319731E2308390
S113048031972083319723E220833197408331973A
S11304905083319726E22083319727E220833197D6
S11304A028E22083319729E22083319720E32083B7
S11304B0319721E32083869708950E94E801A09153
S11304C0DD06B091DE06CD91CDBFDD91DEBFFF919B
S11304D0EF91DF91CF91BF91AF919F918F917F91D8
S11304E06F915F914F913F912F911F910F91FF90C9
S11304F0EF90DF90CF90BF90AF909F908F907F90C0
S11305006F905F904F903F902F901F900F900FBE71
S11305100F90089581E008950F920FB6F8940F920A
S11305201F9211242F923F924F925F926F927F926B
S11305308F929F92AF92BF92CF92DF92EF92FF92EF
S11305400F931F932F933F934F935F936F937F93D7
S11305508F939F93AF93BF93CF93DF93EF93FF93C7
S1130560A091DD06B091DE060DB60D920EB60D9289
S11305700E946309A091DD06B091DE06CD91CDBF46
S1130580DD91DEBFFF91EF91DF91CF91BF91AF91EC
S11305909F918F917F916F915F914F913F912F9197
S11305A01F910F91FF90EF90DF90CF90BF90AF908D
S11305B09F908F907F906F905F904F903F902F907F
S11305C01F900F900FBE0F900895E2EAF0E0A6EAA4
S11305D0B0E0B183A08313821282EEE7F6E0F093D9
S11305E0A100E093A000138212821182108288ED90
S11305F095E013969C938E931297ED93FC939093AE
S11306009D0080939C0090939F0080939E0080E0C7
S113061090E890939B0080939A000895CF93DF9382
S1130620EC01A2EAB0E001C0DF01ED91FC91119769
S1130630EC17FD07C8F312968D919C9113979D01B9
S1130640280F391FC217D30749F42A813B81820F2F
S1130650931F13969C938E931297ED018A819B812D
S11306609E01280F391FE217F307C1F42091A0005F
S11306703091A100E217F30771F022813381820FD8
S1130680931F9B838A83ED91FC91119780819181C3
S11306909983888305C03983288302C0F983E8835A
S11306A0CA17DB0711F0CD93DC93DF91CF91089546
S11306B0EF92FF920F931F93CF93DF938C010E94CD
S11306C011088091A0009091A100892B11F40E943F
S11306D0E50280919A0090919B0080239123892BBD
S11306E009F067C00115110511F00C5F1F4F0115CA
S11306F0110509F461C080919E0090919F008017BC
S1130700910708F45CC0C091A200D091A300E2EA72
S1130710F0E002C0FE01EC018A819B818017910701
S113072020F4888199810097A9F78091A000909185
S1130730A100C817D90709F445C0E080F18084E01E
S1130740E80EF11C88819981918380832A813B8101
S1130750201B310B2930310550F0CE01800F911F41
S1130760FC01338322831B830A830E940E032A81A4
S11307703B8180919E0090919F00821B930B9093EC
S11307809F0080939E0040919C0050919D0084178F
S1130790950720F490939D0080939C0080919A008B
S11307A090919B00282B392B3B832A831982188232
S11307B00BC0E12CF12C08C0E12CF12C05C0E12C7C
S11307C0F12C02C0E12CF12C0E94DB08C701DF915F
S11307D0CF911F910F91FF90EF9008950F931F9366
S11307E0CF93DF93009751F1EC0124974A815B8109
S11307F020919A0030919B00BA0162237323672BE6
S1130800E9F068817981672BC9F420953095242318
S113081035233B832A830E9411088A819B8120917E
S11308209E0030919F00820F931F90939F008093AE
S11308309E00CE010E940E030E94DB08DF91CF913F
S11308401F910F9108950FB6F8940F92FC01228D19
S1130850838D281302C081E001C080E00F900FBE99
S113086008950F931F93CF93DF93EC01042F1A8DF8
S11308704C8D41110CC088819981892B09F042C0AB
S11308808C819D810E944F0A1D821C8242C00111ED
S113089017C050E08A819B810E941B0B2C8D8A819A
S11308A09B81820F911D9B838A832C813D818217BA
S11308B0930750F1888199819B838A8380E029C0C2
S11308C050E08E819F810E941B0B8C8D90E091954E
S11308D0819591092E813F81280F391F3F832E83F3
S11308E0488159812417350730F42C813D81820FCA
S11308F0931F9F838E83023049F4112349F01150D2
S113090080E007C080E005C080E003C080E001C053
S113091080E01F5F1A8FDF91CF911F910F9108958F
S11309201F93CF93DF93EC010FB6F8940F921E8DB3
S11309300BC08989882351F0CE0141960E94C909D0
S113094081110E944B0A115011169CF38FEF8E8F68
S11309500F900FBE0FB6F8940F921D8D0BC08885B3
S1130960882351F0CE0108960E94C90981110E9482
S11309704B0A115011169CF38FEF8D8F0F900FBE01
S1130980DF91CF911F910895CF93DF93EC010FB6C0
S1130990F8940F92E881F9818B8D2C8D90E030E0F2
S11309A0829FA001839F500D929F500D11244E0FE2
S11309B05F1F5D834C831A8EFB83EA830197289F14
S11309C0A001299F500D389F500D1124CF01840F91
S11309D0951F9F838E838FEF8D8F8E8F61110CC037
S11309E08885882389F0CE0108960E94C909882346
S11309F059F00E948C0208C0CE0108960E945D0145
S1130A00CE0141960E945D010F900FBE81E0DF91FF
S1130A10CF9108950F931F93F801611103C01183BF
S1130A20008302C051834083838F648F61E0CF01D0
S1130A300E94C4041F910F910895DF92EF92FF92D8
S1130A400F931F93CF93DF93E82EF62ED42E6623B5
S1130A5021F0869FC001112402C080E090E04F96EF
S1130A600E945803EC01009749F08C012D2DAC0134
S1130A70415E5F4F6F2D8E2D0E940A05CE01DF91DE
S1130A80CF911F910F91FF90EF90DF900895CF9237
S1130A90DF92EF92FF920F931F93CF93DF9300D0D7
S1130AA000D01F92CDB7DEB78C017B015D834C83F0
S1130AB0C22ED12C0FB6F8940F92F801928D838D2B
S1130AC0981718F0F2E0CF1219C04C2DB701C801E5
S1130AD00E943104F8019189992349F0C801419693
S1130AE00E94C909882331F00E948C0203C081113D
S1130AF00E948C020F900FBE81E04DC08C819D81BD
S1130B00892B21F40F900FBE80E045C0D11006C0A0
S1130B10CE0101960E94110ADD24D3940F900FBEDA
S1130B200E9411080FB6F8940F92F801858D8F3F3B
S1130B3009F4158EF801868D8F3F09F4168E0F90F7
S1130B400FBEBE016C5F7F4FCE0101960E941C0A4E
S1130B5081111BC0C8010E942304882381F06C8189
S1130B607D81C80108960E94B709C8010E949004BB
S1130B700E94DB0881119ECF0E948C029BCFC8018A
S1130B800E9490040E94DB0895CFC8010E94900443
S1130B900E94DB0880E00F900F900F900F900F9051
S1130BA0DF91CF911F910F91FF90EF90DF90CF9045
S1130BB00895009769F0FC01158214821182108255
S1130BC0168220E040E050E060E070E00E944705BB
S1130BD00895CF93DF93482F60E081E00E941D05C4
S1130BE0EC010E94D905CE01DF91CF910895E091E7
S1130BF0A506F091A6068081811107C08FEF9FEFB3
S1130C0090938606809385060895E091A506F09159
S1130C10A6060580F681E02D0680F781E02D82810D
S1130C20938190938606809385060895CF93DF93EE
S1130C30EC018F89988D0E94EE03CE010E94EE0391
S1130C40DF91CF9108956F927F928F929F92AF928E
S1130C50BF92CF92DF92EF920F931F93CF93DF93C4
S1130C60CDB7DEB74C01F5018789908D215031094C
S1130C703C01620E731E20E00FC0822F90E0FB0146
S1130C80E80FF91F3081D501A80FB91F59963C937D
S1130C908081882319F02F5F283078F3F50110A2A2
S1130CA0F3E0FE1520F40F2EF3E0EF2EF02DF50106
S1130CB0E68AE1A212A2C50102960E946B01C50157
S1130CC00C960E946B01F501B186A08684E090E049
S1130CD08E19910995878487B38AA28A13A214A2D4
S1130CE015A216A217A2A801B401C3010E94F10122
S1130CF0F50191838083C114D10419F0F601B18206
S1130D00A082DF91CF911F910F91EF90DF90CF9050
S1130D10BF90AF909F908F907F906F900895CF93E6
S1130D20C0E010C08C2F90E09C01220F331F220FD3
S1130D30331F220F331F820F931F8754994F0E9432
S1130D405D01CF5FC43070F380EB96E00E945D01DB
S1130D5087EA96E00E945D018AE996E00E945D01BF
S1130D6081E996E00E945D0180EB96E09093A606EF
S1130D708093A50687EA96E09093A4068093A30641
S1130D80CF910895CF93DF93EC010FB6F8940F92AF
S1130D9080918F068F5F80938F068091DD069091FE
S1130DA0DE06892B59F4D093DE06C093DD068091CC
S1130DB08F06813099F40E948F0610C080918B06B3
S1130DC081110CC0E091DD06F091DE0696898E89D2
S1130DD0891720F0D093DE06C093DD068091870644
S1130DE08F5F809387068E8990918C06981710F4F4
S1130DF080938C0690E09C01220F331F220F331F37
S1130E00220F331F820F931FBE016E5F7F4F8754E3
S1130E10994F0E946F010F900FBE80918B0688231B
S1130E2051F0E091DD06F091DE0696898E899817DF
S1130E3010F40E948C02DF91CF910895CF93DF9339
S1130E401CC00FB6F8940F92E0919606F0919706A5
S1130E50C681D781CE0102960E94C10180918F067E
S1130E60815080938F0680919006815080939006E4
S1130E700F900FBECE010E9416068091900681113C
S1130E80E0CFDF91CF9108950F931F93CF93DF931A
S1130E90EC0100918D0610918E068091DD069091F3
S1130EA0DE0602960E94C101C00FD11FE091DD064B
S1130EB0F091DE06D383C283C017D10768F4609132
S1130EC0DD067091DE068091A3069091A4066E5F04
S1130ED07F4F0E94900117C06091DD067091DE067D
S1130EE08091A5069091A6066E5F7F4F0E949001A7
S1130EF08091850690918606C817D90720F4D0936F
S1130F008606C0938506DF91CF911F910F910895B6
S1130F100E941E078091B906823010F00E948C0254
S1130F200E945A01F5CF2F923F924F925F926F9297
S1130F307F928F929F92AF92BF92CF92DF92EF9265
S1130F40FF920F931F93CF93DF933C011B015A0130
S1130F502901CA010E9458036C01892B71F088E2AF
S1130F6090E00E945803EC01892B19F0D88ECF8AA7
S1130F7006C0C6010E94EE0302C0C0E0D0E0209784
S1130F8091F0950140E050E0812C912C5E016701C5
S1130F90E02E8201B101C3010E942306CE010E940A
S1130FA0C20681E001C08FEFDF91CF911F910F91B5
S1130FB0FF90EF90DF90CF90BF90AF909F908F9075
S1130FC07F906F905F904F903F902F900895EF9295
S1130FD0FF920F930F2EF3E8EF2EF6E0FF2EF02D85
S1130FE000E020E030E045E550E060E670E088E8AD
S1130FF097E00E949307813081F4F8948FEF9FEF7C
S1131000909386068093850681E080938B061092E8
S11310108E0610928D060E945D020F91FF90EF9054
S11310200895809182068F5F8093820608950FB69B
S1131030F8940F9280918D0690918E060F900FBEBA
S11310400895DF92EF92FF920F931F93CF93DF9354
S113105080918206811197C0E0908D06F0908E06F3
S11310608FEFE81AF80AF0928E06E0928D06E114EA
S1131070F104B9F48091A5069091A6062091A306E7
S11310803091A4063093A6062093A5069093A40657
S11310908093A306809188068F5F809388060E94C0
S11310A0F7058091850690918606E816F90628F4DE
S11310B0D12C53C0DD24D39401C0D12CE091A506DA
S11310C0F091A6068081811107C08FEF9FEF909366
S11310D086068093850641C0E091A506F091A60698
S11310E00580F681E02DC681D7818A819B81E8162F
S11310F0F90628F490938606809385062EC08E0107
S11311000E5F1F4FC8010E94C1018C899D89892BE4
S113111021F0CE010C960E94C1018E8990918C061B
S1131120981710F480938C0690E09C01220F331FD3
S1131130220F331F220F331F820F931FB8018754CE
S1131140994F0E946F019E89E091DD06F091DE06C1
S11311508689981708F0AECFB1CFE091DD06F09103
S1131160DE06868990E0FC01EE0FFF1FEE0FFF1FE5
S1131170EE0FFF1F8E0F9F1FFC01E754F94F808174
S1131180823040F409C080918A068F5F80938A067A
S1131190D12C02C0DD24D39480918906882311F0D8
S11311A0DD24D3948D2DDF91CF911F910F91FF906A
S11311B0EF90DF9008950F931F93CF93DF930FB6B3
S11311C0F8940F92809182068150809382068091D8
S11311D08206811158C080918F06811133C056C098
S11311E0E0919F06F091A006C681D781CE010C96AE
S11311F00E94C1018E010E5F1F4FC8010E94C101F0
S11312008E8990918C06981710F480938C0690E048
S11312109C01220F331F220F331F220F331F820F13
S1131220931FB8018754994F0E946F019E89E091E2
S1131230DD06F091DE068689981730F081E0809310
S1131240890602C0C0E0D0E080919A068111C8CF1F
S1131250CD2B11F00E94F705C0918A06CC2359F0DA
S11312600E942108882319F081E080938906C150E7
S1131270B9F710928A0680918906882331F00E947A
S11312808C0281E003C080E001C080E00F900FBEBB
S1131290DF91CF911F910F910895CF93DF93EC01CC
S11312A0892B49F00E94110860E0CE010E94440796
S11312B00E94DB0801C080E0811102C00E948C0200
S11312C0DF91CF91089580918206882321F081E0F7
S11312D08093890608951092890620918C0601C096
S11312E02150822F90E0FC01EE0FFF1FEE0FFF1F35
S11312F0EE0FFF1FE80FF91FE754F94F3081332336
S113130079F3AC01440F551F440F551F440F551F6B
S1131310480F591FDF010180F281E02D0280F38123
S1131320E02D1296FC93EE9311974454594FE41711
S1131330F50729F442815381FD0152834183FC0165
S1131340EE0FFF1FEE0FFF1FEE0FFF1F8E0F9F1FED
S1131350FC01E754F94F0180F281E02D86819781E9
S11313609093DE068093DD0620938C060895CF9338
S1131370DF93EB016091DD067091DE06645F7F4FC1
S11313800E94900161E0CE010E944407DF91CF9159
S113139008950F931F93CF93DF93DC011596ED917E
S11313A0FC911697C681D7818E01045F1F4FC80137
S11313B00E94C1018091820681111CC00A5011094A
S11313C0C8010E94C1018E8990918C06981710F46F
S11313D080938C0690E09C01220F331F220F331F51
S11313E0220F331F820F931FB8018754994F0E9415
S11313F06F0105C0B8018AE996E00E946F019E89D9
S1131400E091DD06F091DE068689891720F481E0FB
S11314108093890601C080E0DF91CF911F910F91E5
S1131420089520918806FC01208320918D06309137
S11314308E06328321830895CF93DF930FB6F894F9
S11314400F9240918D0650918E06EC0129813A81CC
S1131450DA01A21BB30BF881E0918806FE1719F09C
S11314604217530790F4FB0120813181A217B3077F
S113147040F42A1B3B0B318320830E94110A80E035
S113148005C01182108281E001C081E00F900FBE7F
S1131490DF91CF91089581E08093890608950F9399
S11314A01F93CF93DF93FC01892B79F182A18150A3
S11314B082A3268991A1291751F181112AC0EF0134
S11314C08F010E5F1F4FC8010E94C10189A18E8B3D
S11314D024E030E0281B31093D872C8790918C064D
S11314E0981710F480938C0690E09C01220F331F10
S11314F0220F331F220F331F820F931FB80187540B
S1131500994F0E946F0181E005C080E003C080E034
S113151001C080E0DF91CF911F910F91089587B3AF
S1131520826087BB8FB583688FBD8EB58A618EBD9F
S11315301BBC1ABC089584B38E7F84BB87B18064BE
S113154087B986B1876886B9089587B1807F87B9DE
S113155086B1806486B93699FECF84B195B1089579
S11315600E94A50A24E6AC01249FC001259F900D8A
S113157011246FEF73E00E94F30A6093DF068091F9
S1131580DF065FEF859FC001112464E670E00E94CE
S1131590070B7BBD6ABD82E290E00E944D09E0CF5B
S11315A0EF92FF920F9381E00E94E9059093E10688
S11315B08093E0060E948F0A0E949B0AE12CF12C82
S11315C001E020E030E045E550E065E670E080EBC6
S11315D09AE00E9493070E94E70780E090E00F9151
S11315E0FF90EF900895AA1BBB1B51E107C0AA1FEF
S11315F0BB1FA617B70710F0A61BB70B881F991FB0
S11316005A95A9F780959095BC01CD01089597FB53
S1131610072E16F4009407D077FD09D00E94F30A30
S113162007FC05D03EF4909581959F4F08957095E1
S113163061957F4F0895FB01DC0102C001900D927A
S10F164041505040D8F70895F894FFCFB3
S113164C49444C45004D6F746F72436F6E74726FE6
S105165C6C001C
S9030000FC
